{
  "_format": "hh-sol-artifact-1",
  "contractName": "Crowdfunding",
  "sourceName": "contracts/Crowdfunding.sol",
  "abi": [
    {
      "inputs": [
        {
          "internalType": "uint256",
          "name": "_minInvestAmount",
          "type": "uint256"
        },
        {
          "internalType": "uint256",
          "name": "_fee",
          "type": "uint256"
        }
      ],
      "stateMutability": "nonpayable",
      "type": "constructor"
    },
    {
      "anonymous": false,
      "inputs": [
        {
          "indexed": false,
          "internalType": "uint256",
          "name": "projectId",
          "type": "uint256"
        },
        {
          "indexed": false,
          "internalType": "uint256",
          "name": "amount",
          "type": "uint256"
        },
        {
          "indexed": false,
          "internalType": "address",
          "name": "investor",
          "type": "address"
        }
      ],
      "name": "Funded",
      "type": "event"
    },
    {
      "anonymous": false,
      "inputs": [
        {
          "indexed": true,
          "internalType": "address",
          "name": "previousOwner",
          "type": "address"
        },
        {
          "indexed": true,
          "internalType": "address",
          "name": "newOwner",
          "type": "address"
        }
      ],
      "name": "OwnershipTransferred",
      "type": "event"
    },
    {
      "anonymous": false,
      "inputs": [
        {
          "components": [
            {
              "internalType": "uint256",
              "name": "id",
              "type": "uint256"
            },
            {
              "internalType": "bytes32",
              "name": "name",
              "type": "bytes32"
            },
            {
              "internalType": "string",
              "name": "description",
              "type": "string"
            },
            {
              "internalType": "string",
              "name": "url",
              "type": "string"
            },
            {
              "internalType": "uint256",
              "name": "goal",
              "type": "uint256"
            },
            {
              "internalType": "uint256",
              "name": "raisedAmount",
              "type": "uint256"
            },
            {
              "internalType": "uint256",
              "name": "endDateTs",
              "type": "uint256"
            },
            {
              "internalType": "address",
              "name": "founder",
              "type": "address"
            },
            {
              "internalType": "bool",
              "name": "isWithdrawn",
              "type": "bool"
            }
          ],
          "indexed": false,
          "internalType": "struct Crowdfunding.Project",
          "name": "",
          "type": "tuple"
        }
      ],
      "name": "ProjectCreated",
      "type": "event"
    },
    {
      "anonymous": false,
      "inputs": [
        {
          "indexed": false,
          "internalType": "uint256",
          "name": "projectId",
          "type": "uint256"
        },
        {
          "indexed": false,
          "internalType": "uint256",
          "name": "amount",
          "type": "uint256"
        },
        {
          "indexed": false,
          "internalType": "address",
          "name": "founder",
          "type": "address"
        }
      ],
      "name": "RaisedFundsReceived",
      "type": "event"
    },
    {
      "anonymous": false,
      "inputs": [
        {
          "indexed": false,
          "internalType": "uint256",
          "name": "projectId",
          "type": "uint256"
        },
        {
          "indexed": false,
          "internalType": "uint256",
          "name": "amount",
          "type": "uint256"
        },
        {
          "indexed": false,
          "internalType": "address",
          "name": "investor",
          "type": "address"
        }
      ],
      "name": "ReFunded",
      "type": "event"
    },
    {
      "anonymous": false,
      "inputs": [
        {
          "indexed": false,
          "internalType": "uint256",
          "name": "amount",
          "type": "uint256"
        }
      ],
      "name": "Withdraw",
      "type": "event"
    },
    {
      "inputs": [
        {
          "internalType": "bytes32",
          "name": "name",
          "type": "bytes32"
        },
        {
          "internalType": "string",
          "name": "description",
          "type": "string"
        },
        {
          "internalType": "string",
          "name": "url",
          "type": "string"
        },
        {
          "internalType": "uint256",
          "name": "goal",
          "type": "uint256"
        },
        {
          "internalType": "uint256",
          "name": "duration",
          "type": "uint256"
        }
      ],
      "name": "createProject",
      "outputs": [],
      "stateMutability": "nonpayable",
      "type": "function"
    },
    {
      "inputs": [],
      "name": "earnedFees",
      "outputs": [
        {
          "internalType": "uint256",
          "name": "",
          "type": "uint256"
        }
      ],
      "stateMutability": "view",
      "type": "function"
    },
    {
      "inputs": [],
      "name": "fee",
      "outputs": [
        {
          "internalType": "uint256",
          "name": "",
          "type": "uint256"
        }
      ],
      "stateMutability": "view",
      "type": "function"
    },
    {
      "inputs": [
        {
          "internalType": "uint256",
          "name": "id",
          "type": "uint256"
        }
      ],
      "name": "fundInProject",
      "outputs": [],
      "stateMutability": "payable",
      "type": "function"
    },
    {
      "inputs": [],
      "name": "getAllProjects",
      "outputs": [
        {
          "components": [
            {
              "internalType": "uint256",
              "name": "id",
              "type": "uint256"
            },
            {
              "internalType": "bytes32",
              "name": "name",
              "type": "bytes32"
            },
            {
              "internalType": "string",
              "name": "description",
              "type": "string"
            },
            {
              "internalType": "string",
              "name": "url",
              "type": "string"
            },
            {
              "internalType": "uint256",
              "name": "goal",
              "type": "uint256"
            },
            {
              "internalType": "uint256",
              "name": "raisedAmount",
              "type": "uint256"
            },
            {
              "internalType": "uint256",
              "name": "endDateTs",
              "type": "uint256"
            },
            {
              "internalType": "address",
              "name": "founder",
              "type": "address"
            },
            {
              "internalType": "bool",
              "name": "isWithdrawn",
              "type": "bool"
            }
          ],
          "internalType": "struct Crowdfunding.Project[]",
          "name": "",
          "type": "tuple[]"
        }
      ],
      "stateMutability": "view",
      "type": "function"
    },
    {
      "inputs": [
        {
          "internalType": "address",
          "name": "",
          "type": "address"
        },
        {
          "internalType": "uint256",
          "name": "",
          "type": "uint256"
        }
      ],
      "name": "investments",
      "outputs": [
        {
          "internalType": "uint256",
          "name": "",
          "type": "uint256"
        }
      ],
      "stateMutability": "view",
      "type": "function"
    },
    {
      "inputs": [],
      "name": "minInvestAmount",
      "outputs": [
        {
          "internalType": "uint256",
          "name": "",
          "type": "uint256"
        }
      ],
      "stateMutability": "view",
      "type": "function"
    },
    {
      "inputs": [],
      "name": "owner",
      "outputs": [
        {
          "internalType": "address",
          "name": "",
          "type": "address"
        }
      ],
      "stateMutability": "view",
      "type": "function"
    },
    {
      "inputs": [],
      "name": "projectId",
      "outputs": [
        {
          "internalType": "uint256",
          "name": "",
          "type": "uint256"
        }
      ],
      "stateMutability": "view",
      "type": "function"
    },
    {
      "inputs": [
        {
          "internalType": "uint256",
          "name": "",
          "type": "uint256"
        }
      ],
      "name": "projects",
      "outputs": [
        {
          "internalType": "uint256",
          "name": "id",
          "type": "uint256"
        },
        {
          "internalType": "bytes32",
          "name": "name",
          "type": "bytes32"
        },
        {
          "internalType": "string",
          "name": "description",
          "type": "string"
        },
        {
          "internalType": "string",
          "name": "url",
          "type": "string"
        },
        {
          "internalType": "uint256",
          "name": "goal",
          "type": "uint256"
        },
        {
          "internalType": "uint256",
          "name": "raisedAmount",
          "type": "uint256"
        },
        {
          "internalType": "uint256",
          "name": "endDateTs",
          "type": "uint256"
        },
        {
          "internalType": "address",
          "name": "founder",
          "type": "address"
        },
        {
          "internalType": "bool",
          "name": "isWithdrawn",
          "type": "bool"
        }
      ],
      "stateMutability": "view",
      "type": "function"
    },
    {
      "inputs": [
        {
          "internalType": "uint256",
          "name": "id",
          "type": "uint256"
        }
      ],
      "name": "receiveRaisedFunds",
      "outputs": [],
      "stateMutability": "payable",
      "type": "function"
    },
    {
      "inputs": [
        {
          "internalType": "uint256",
          "name": "id",
          "type": "uint256"
        }
      ],
      "name": "refundFromProject",
      "outputs": [],
      "stateMutability": "payable",
      "type": "function"
    },
    {
      "inputs": [],
      "name": "renounceOwnership",
      "outputs": [],
      "stateMutability": "nonpayable",
      "type": "function"
    },
    {
      "inputs": [
        {
          "internalType": "address",
          "name": "newOwner",
          "type": "address"
        }
      ],
      "name": "transferOwnership",
      "outputs": [],
      "stateMutability": "nonpayable",
      "type": "function"
    },
    {
      "inputs": [],
      "name": "withdraw",
      "outputs": [],
      "stateMutability": "nonpayable",
      "type": "function"
    },
    {
      "stateMutability": "payable",
      "type": "receive"
    }
  ],
  "bytecode": "0x60c060405234801561001057600080fd5b506040516114e73803806114e783398101604081905261002f91610096565b61003833610046565b60809190915260a0526100ba565b600080546001600160a01b038381166001600160a01b0319831681178455604051919092169283917f8be0079c531659141344cd1fd0a4f28419497f9722a3daafe3b4186f6b6457e09190a35050565b600080604083850312156100a957600080fd5b505080516020909101519092909150565b60805160a0516113fa6100ed600039600081816102bd0152610dd3015260008181610273015261075401526113fa6000f3fe6080604052600436106100ec5760003560e01c8063715018a61161008a578063b162d5dc11610059578063b162d5dc14610261578063b1b3ffd914610295578063ddca3f43146102ab578063f2fde38b146102df57600080fd5b8063715018a6146101e257806380d03829146101f75780638da5cb5b146102195780639601961a1461024157600080fd5b80633e6d9770116100c65780633e6d9770146101605780633fafa127146101a65780635e0a9238146101bc578063661a4e6e146101cf57600080fd5b8063107046bd146100f85780631d21365e146101365780633ccfd60b1461014b57600080fd5b366100f357005b600080fd5b34801561010457600080fd5b50610118610113366004610e7c565b6102ff565b60405161012d99989796959493929190610edb565b60405180910390f35b610149610144366004610e7c565b610467565b005b34801561015757600080fd5b50610149610597565b34801561016c57600080fd5b5061019861017b366004610f64565b600260209081526000928352604080842090915290825290205481565b60405190815260200161012d565b3480156101b257600080fd5b5061019860035481565b6101496101ca366004610e7c565b610618565b6101496101dd366004610e7c565b610738565b3480156101ee57600080fd5b506101496108ff565b34801561020357600080fd5b5061020c610913565b60405161012d9190611024565b34801561022557600080fd5b506000546040516001600160a01b03909116815260200161012d565b34801561024d57600080fd5b5061014961025c366004611129565b610ba3565b34801561026d57600080fd5b506101987f000000000000000000000000000000000000000000000000000000000000000081565b3480156102a157600080fd5b5061019860045481565b3480156102b757600080fd5b506101987f000000000000000000000000000000000000000000000000000000000000000081565b3480156102eb57600080fd5b506101496102fa3660046111a8565b610cf7565b6001602081905260009182526040909120805491810154600282018054919291610328906111ca565b80601f0160208091040260200160405190810160405280929190818152602001828054610354906111ca565b80156103a15780601f10610376576101008083540402835291602001916103a1565b820191906000526020600020905b81548152906001019060200180831161038457829003601f168201915b5050505050908060030180546103b6906111ca565b80601f01602080910402602001604051908101604052809291908181526020018280546103e2906111ca565b801561042f5780601f106104045761010080835404028352916020019161042f565b820191906000526020600020905b81548152906001019060200180831161041257829003601f168201915b50505050600483015460058401546006850154600790950154939491939092506001600160a01b03811690600160a01b900460ff1689565b6000818152600160205260409020600481015460058201541180156104a557506000828152600160205260409020600701546001600160a01b031633145b6105075760405162461bcd60e51b815260206004820152602860248201527f43726f776466756e64696e673a2021726169736520776974686472617720636f6044820152676e646974696f6e7360c01b60648201526084015b60405180910390fd5b6005810154604051339180156108fc02916000818181858888f19350505050158015610537573d6000803e3d6000fd5b5060078101805460ff60a01b1916600160a01b179055600581015460408051848152602081019290925233908201527f50ccda41da337cddaf3425b903573f36e347723fe9f8ed442f3a117b559deae19060600160405180910390a15050565b61059f610d70565b600454600080546040516001600160a01b039091169183156108fc02918491818181858888f193505050501580156105db573d6000803e3d6000fd5b5060006004556040518181527f5b6b431d4476a211bb7d41c20d1aab9ae2321deee0d20be3d9fc9b1093fa6e3d906020015b60405180910390a150565b600081815260016020526040902060048101546005909101541115801561064f575060008181526001602052604090206006015442115b61069b5760405162461bcd60e51b815260206004820181905260248201527f43726f776466756e64696e673a2021726566756e6420636f6e646974696f6e7360448201526064016104fe565b33600081815260026020908152604080832085845290915280822054905181156108fc0292818181858888f193505050501580156106dd573d6000803e3d6000fd5b503360008181526002602090815260408083208584528252808320839055805185815291820192909252908101919091527f91f5091195d00093b385e9dbbe571cebb17d8cdd9d5e66a8d342a5927056d7b19060600161060d565b60008181526001602052604081209061075034610dca565b90507f00000000000000000000000000000000000000000000000000000000000000003410156107c25760405162461bcd60e51b815260206004820152601e60248201527f43726f776466756e64696e673a20216d696e496e76657374416d6f756e74000060448201526064016104fe565b60008381526001602052604090206004810154600590910154111580156107fa57506000838152600160205260409020600601544211155b6108465760405162461bcd60e51b815260206004820152601f60248201527f43726f776466756e64696e673a2021726169736520636f6e646974696f6e730060448201526064016104fe565b8082600501600082825461085a9190611214565b909155505033600090815260026020908152604080832086845290915281208054839290610889908490611214565b909155505060405130903480156108fc02916000818181858888f193505050501580156108ba573d6000803e3d6000fd5b506040805184815260208101839052338183015290517f2fdf62f5c0eab6215e63610ec1dc0acf8ed2f6d38ab5bdf08fcffc99be3c6ba89181900360600190a1505050565b610907610d70565b6109116000610e2c565b565b6060600060035467ffffffffffffffff81111561093257610932611086565b6040519080825280602002602001820160405280156109c057816020015b6109ad6040518061012001604052806000815260200160008019168152602001606081526020016060815260200160008152602001600081526020016000815260200160006001600160a01b031681526020016000151581525090565b8152602001906001900390816109505790505b50905060005b600354811015610b9d5760016000828152602001908152602001600020604051806101200160405290816000820154815260200160018201548152602001600282018054610a13906111ca565b80601f0160208091040260200160405190810160405280929190818152602001828054610a3f906111ca565b8015610a8c5780601f10610a6157610100808354040283529160200191610a8c565b820191906000526020600020905b815481529060010190602001808311610a6f57829003601f168201915b50505050508152602001600382018054610aa5906111ca565b80601f0160208091040260200160405190810160405280929190818152602001828054610ad1906111ca565b8015610b1e5780601f10610af357610100808354040283529160200191610b1e565b820191906000526020600020905b815481529060010190602001808311610b0157829003601f168201915b50505091835250506004820154602082015260058201546040820152600682015460608201526007909101546001600160a01b0381166080830152600160a01b900460ff16151560a0909101528251839083908110610b7f57610b7f611227565b60200260200101819052508080610b959061123d565b9150506109c6565b50919050565b60006040518061012001604052806003548152602001878152602001868152602001858152602001848152602001600081526020018342610be49190611214565b8152336020808301919091526000604092830181905260035481526001808352908390208451815591840151908201559082015191925082916002820190610c2c90826112a5565b5060608201516003820190610c4190826112a5565b506080820151600482015560a0820151600582015560c0820151600682015560e082015160079091018054610100909301511515600160a01b026001600160a81b03199093166001600160a01b03909216919091179190911790556003805460019190600090610cb2908490611214565b90915550506040517f4495974a228cfa062f589704cb1439e8d27d694653fb0ff3a5b20cc1855a2d1690610ce7908390611365565b60405180910390a1505050505050565b610cff610d70565b6001600160a01b038116610d645760405162461bcd60e51b815260206004820152602660248201527f4f776e61626c653a206e6577206f776e657220697320746865207a65726f206160448201526564647265737360d01b60648201526084016104fe565b610d6d81610e2c565b50565b6000546001600160a01b031633146109115760405162461bcd60e51b815260206004820181905260248201527f4f776e61626c653a2063616c6c6572206973206e6f7420746865206f776e657260448201526064016104fe565b60006064610df87f000000000000000000000000000000000000000000000000000000000000000084611378565b610e02919061138f565b90508060046000828254610e169190611214565b90915550610e26905081836113b1565b92915050565b600080546001600160a01b038381166001600160a01b0319831681178455604051919092169283917f8be0079c531659141344cd1fd0a4f28419497f9722a3daafe3b4186f6b6457e09190a35050565b600060208284031215610e8e57600080fd5b5035919050565b6000815180845260005b81811015610ebb57602081850181015186830182015201610e9f565b506000602082860101526020601f19601f83011685010191505092915050565b60006101208b83528a6020840152806040840152610efb8184018b610e95565b90508281036060840152610f0f818a610e95565b6080840198909852505060a081019490945260c08401929092526001600160a01b031660e0830152151561010090910152949350505050565b80356001600160a01b0381168114610f5f57600080fd5b919050565b60008060408385031215610f7757600080fd5b610f8083610f48565b946020939093013593505050565b600061012082518452602083015160208501526040830151816040860152610fb882860182610e95565b91505060608301518482036060860152610fd28282610e95565b9150506080830151608085015260a083015160a085015260c083015160c085015260e083015161100d60e08601826001600160a01b03169052565b506101009283015115159390920192909252919050565b6000602080830181845280855180835260408601915060408160051b870101925083870160005b8281101561107957603f19888603018452611067858351610f8e565b9450928501929085019060010161104b565b5092979650505050505050565b634e487b7160e01b600052604160045260246000fd5b600082601f8301126110ad57600080fd5b813567ffffffffffffffff808211156110c8576110c8611086565b604051601f8301601f19908116603f011681019082821181831017156110f0576110f0611086565b8160405283815286602085880101111561110957600080fd5b836020870160208301376000602085830101528094505050505092915050565b600080600080600060a0868803121561114157600080fd5b85359450602086013567ffffffffffffffff8082111561116057600080fd5b61116c89838a0161109c565b9550604088013591508082111561118257600080fd5b5061118f8882890161109c565b9598949750949560608101359550608001359392505050565b6000602082840312156111ba57600080fd5b6111c382610f48565b9392505050565b600181811c908216806111de57607f821691505b602082108103610b9d57634e487b7160e01b600052602260045260246000fd5b634e487b7160e01b600052601160045260246000fd5b80820180821115610e2657610e266111fe565b634e487b7160e01b600052603260045260246000fd5b60006001820161124f5761124f6111fe565b5060010190565b601f8211156112a057600081815260208120601f850160051c8101602086101561127d5750805b601f850160051c820191505b8181101561129c57828155600101611289565b5050505b505050565b815167ffffffffffffffff8111156112bf576112bf611086565b6112d3816112cd84546111ca565b84611256565b602080601f83116001811461130857600084156112f05750858301515b600019600386901b1c1916600185901b17855561129c565b600085815260208120601f198616915b8281101561133757888601518255948401946001909101908401611318565b50858210156113555787850151600019600388901b60f8161c191681555b5050505050600190811b01905550565b6020815260006111c36020830184610f8e565b8082028115828204841417610e2657610e266111fe565b6000826113ac57634e487b7160e01b600052601260045260246000fd5b500490565b81810381811115610e2657610e266111fe56fea2646970667358221220b3e2b398ae0f081536129107adaa1d0e3cf2b09466dab61bc24bd2ce67123d5164736f6c63430008120033",
  "linkReferences": {},
  "deployedLinkReferences": {}
}